:020000040800F2
:10000000500C0020CD010008D9200008AB1D0008CD
:10001000D5200008A1020008E52E0008000000001D
:10002000000000000000000000000000D5220008D1
:100030002D09000800000000DB200008092C000842
:10004000E7010008E7010008E7010008E7010008F0
:10005000E7010008E7010008E7010008E7010008E0
:10006000E7010008E7010008E7010008E7010008D0
:10007000E7010008E7010008E7010008E7010008C0
:10008000E7010008E7010008E7010008E7010008B0
:10009000E7010008E7010008E7010008E7010008A0
:1000A000E7010008E7010008E7010008E701000890
:1000B000E7010008692C0008E7010008E7010008D3
:1000C000E7010008E7010008E7010008E701000870
:1000D000E7010008A52E0008E7010008E701000875
:1000E000E7010008E7010008E7010008E701000850
:1000F000E7010008E7010008E7010008E701000840
:10010000E7010008E7010008E7010008E70100082F
:10011000E7010008E7010008E7010008E70100081F
:10012000E7010008E7010008E7010008E70100080F
:1001300000F002F800F03AF80AA090E8000C8244BF
:100140008344AAF10107DA4501D100F02FF8AFF29C
:10015000090EBAE80F0013F0010F18BFFB1A43F0A5
:100160000103184790380000B0380000103A24BF4F
:1001700078C878C1FAD8520724BF30C830C144BF0C
:1001800004680C607047000000230024002500264E
:10019000103A28BF78C1FBD8520728BF30C148BFEA
:1001A0000B6070471FB51FBD10B510BD00F046F8BD
:1001B0001146FFF7F7FF03F033F800F064F803B4DB
:1001C000FFF7F2FF03BC02F073FF0000094880470D
:1001D00009480047FEE7FEE7FEE7FEE7FEE7FEE729
:1001E000FEE7FEE7FEE7FEE704480549054A064B41
:1001F00070470000112C0008310100085006002053
:10020000500C002050080020500800207047B2F128
:1002100020030AD5C2F1200320FA02F001FA03F309
:1002200021FA02F140EA0300704721FA03F04FF08F
:10023000000170477047704770477047754600F07F
:100240002BF8AE4605006946534620F00700854668
:1002500018B020B5FFF7C8FFBDE820404FF00006FA
:100260004FF000074FF000084FF0000B21F007019E
:10027000AC46ACE8C009ACE8C009ACE8C009ACE8E1
:10028000C0098D46704710B50446AFF30080204684
:10029000BDE81040FFF793BF00487047F00500200D
:1002A00000BFFEE710B586B0044600BF174880695E
:1002B00040F00400154988610846806900F0040098
:1002C000019000BF00BF94B98815029000200390F0
:1002D000012004900320059002A90D4800F028FD9C
:1002E00000224FF400410B4800F0D1FE0CE0012C3D
:1002F0000AD120020290012003900490032005906F
:1003000002A9034800F014FD06B010BD0010024021
:1003100000080140000C014010B5044600F09EF9B1
:1003200001200549087008460078FFF7BBFF0A2046
:1003300002F0CAFE10BD0000700000202DE9F04759
:100340000646374601204049087008460078FFF706
:10035000A9FF012291023D4800F099FE002522E00C
:1003600007F0010028B101221102394800F08FFE88
:1003700005E000224FF48071354800F088FE7F10C0
:100380000122D103314800F082FE022002F09CFEDF
:1003900000224FF400412D4800F079FE022002F0C7
:1003A00093FE681CC5B2082DDADB002026490870D0
:1003B00008460078FFF776FF00251EE064104FF432
:1003C0008071234800F054FE10B144F0800401E035
:1003D00004F07F040122D1031C4800F058FE0220E3
:1003E00002F072FE00224FF40041184800F04FFE68
:1003F000022002F069FE681CC5B2082DDEDB002277
:100400004FF48061114800F042FE01200E4908704F
:1004100008460078FFF746FF2046E11704EB11710C
:10042000C1F30718E11704EB11710911A4EB0111D5
:1004300001F0FF0908EB880009EB400000F0FF0A1B
:100440005046BDE8F087000070000020000C01401D
:100450000008014010B58D20FFF770FF0A2190FBC6
:10046000F1F0334908708D20FFF768FF0A2190FBF7
:10047000F1F201FB12002E4948708920FFF75EFF60
:100480000A2190FBF1F02A49C8708920FFF756FF36
:100490000A2190FBF1F201FB120025490871872027
:1004A000FFF74CFF0A2190FBF1F02149887187206A
:1004B000FFF744FF0A2190FBF1F201FB12001C49F7
:1004C000C8718520FFF73AFF0A2190FBF1F0184927
:1004D00008728520FFF732FF0A2190FBF1F201FB41
:1004E0001200134948728320FFF728FF0A2190FB6E
:1004F000F1F00F49C8728320FFF720FF0A2190FB1B
:10050000F1F201FB12000A4908738120FFF716FF80
:100510000A2190FBF1F0064988738120FFF70EFF56
:100520000A2190FBF1F201FB12000149C87310BDD2
:10053000A001002010B5044600218E2000F01EF816
:100540006179802000F01AF82179822000F016F8F5
:10055000E178842000F012F8A178862000F00EF8EF
:100560006178882000F00AF821788C2000F006F8E5
:1005700080218E2000F002F810BD00002DE9F0412E
:1005800005460E462F46B046012031490870084600
:100590000078FFF787FE012291022E4800F077FDD8
:1005A000002422E007F0010028B1012211022A48AC
:1005B00000F06DFD05E000224FF48071264800F048
:1005C00066FD7F100122D103224800F060FD022069
:1005D00002F07AFD00224FF400411E4800F057FD62
:1005E000022002F071FD601CC4B2082CDADB00248A
:1005F00023E008F0010028B101221102164800F0A2
:1006000046FD05E000224FF48071134800F03FFDE5
:100610004FEA68080122D1030E4800F038FD02209D
:1006200002F052FD00224FF400410A4800F02FFD75
:10063000022002F049FD601CC4B2082CD9DB002264
:100640004FF48061034800F022FDBDE8F081000016
:1006500070000020000C01400008014000B585B08A
:1006600000BF0D48806940F008000B4988610846CA
:10067000806900F00800009000BF00BF4FF4044004
:1006800001900120029003900320049001A90348E7
:1006900000F04EFB05B000BD00100240000C014010
:1006A00010B5002400F070F804E0601CC4B2012012
:1006B00002F016FD4FF400710F4800F0D9FC08B1AC
:1006C000C82CF2DBC82C01DB012010BD002404E0A3
:1006D000601CC4B2012002F003FD4FF40071064813
:1006E00000F0C6FC08B9F02CF2DBF02C01DB012095
:1006F000EBE70020E9E70000000801402DE9F84F92
:1007000000F0D4F800F0BAF8FFF7CAFFCC2000F0F0
:10071000D9F8BE2000F0D6F800F09EF8834600F02D
:100720009BF80446072C08DDE043C4B26FEA0B00D7
:1007300000F0FF0B4FF0000A01E04FF0010AA14664
:100740004FEA09200FFA80F909EB0B000FFA80F944
:10075000484603F0E5F8009003F0B6F8074600229B
:10076000084B02F0B3FF054602F080FF0FFA80F954
:10077000BAF1000F02D04846BDE8F88FC9F1000079
:1007800000B2F9E70000E43F00B585B000BF0D48B6
:10079000806940F004000B4988610846806900F0D8
:1007A0000400009000BF00BF481501900020029097
:1007B00003900320049001A9034800F0B9FA05B0A2
:1007C00000BD0000001002400008014000B585B0E7
:1007D00000BF0C48806940F004000A49886108465F
:1007E000806900F00400009000BF00BF4815019030
:1007F000112002900320049001A9034800F098FA08
:1008000005B000BD001002400008014010B5FFF720
:10081000DDFF00224FF400710E4800F038FC02208A
:1008200002F05EFC012251020A4800F030FCFFF7A2
:10083000ABFF0C2002F054FC4FF40071054800F0AF
:1008400017FC08B1012400E00024322002F048FC2B
:10085000204610BD0008014070B50026012508E0C3
:10086000FFF7D4FF0446E00140EA6600C6B2681C08
:10087000C5B2082DF4DD304670BD000010B5FFF79D
:10088000A5FF00224FF40071074800F000FC40F281
:10089000EE2002F025FC01225102034800F0F7FB94
:1008A0000F2002F01DFC10BD0008014010B5FFF73D
:1008B000E5FFFFF7F5FECC2000F004F8442000F03F
:1008C00001F810BD70B50446FFF780FF012528E050
:1008D00004F0010664108EB100224FF4007112483A
:1008E00000F0D5FB022002F0FBFB012251020E4872
:1008F00000F0CDFB3C2002F0F3FB10E000224FF4AF
:100900000071094800F0C3FB3C2002F0E9FB012222
:100910005102054800F0BBFB022002F0E1FB681C1D
:10092000C5B2082DD4DD70BD00080140704770B518
:1009300004460D46164605F0010504F00F040DB1FE
:1009400044F0400444F080040021204602F0CCFA38
:10095000304602F0F1FA70BD0021074AD161074923
:10096000096941F00201054A1161114648610969AE
:1009700041F04001116170477800002000200240E2
:100980000022054BDA61054A126942F00102034B6D
:100990001A610180704700007800002000200240AA
:1009A00000201E49C96801F0100139B11C49C9690C
:1009B00041F002011A4AD16140F010001749C9689C
:1009C00001F0040139B11649C96941F00101144A25
:1009D000D16140F004001149C96901F0010169B118
:1009E0000F49C96941F004010D4AD16100BF0B49AB
:1009F000C96921F00101094AD16100BF00BF40F27D
:100A00000111884206D10549C96921F00101034A53
:100A1000D16101E00149C86000BF70470020024079
:100A20007800002070B5044600F038FB054609E068
:100A3000601C38B124B100F031FB401BA04201D949
:100A4000032070BD1248C06800F001000028EFD1FB
:100A50000F48C06800F0200020B100BF20200C49E2
:100A6000C86000BF0A48C06800F0100048B90848D4
:100A7000C06900F0010020B90548C06800F004001A
:100A800018B1FFF78DFF0120DBE70020D9E7000058
:100A90000020024070B50446002594F82100022889
:100AA00003D00420A0630125C1E02068006820F085
:100AB0000E00216808602068006820F001002168AD
:100AC00008605C492068884252D95A4978392068C0
:100AD000884201D1012047E05649643920688842A4
:100AE00001D1102040E0534950392068884201D19B
:100AF000801539E04F493C392068884201D1801483
:100B000032E04C4928392068884202D14FF48030C5
:100B10002AE0484914392068884202D14FF48010F5
:100B200022E044492068884201D140041CE0424947
:100B30002068884201D1012016E03F491431206825
:100B4000884201D110200FE03B49283120688842BB
:100B500001D1801508E038493C312068884201D134
:100B6000801401E04FF480303349091F086051E0E0
:100B7000304978392068884201D1012047E02D4969
:100B800064392068884201D1102040E02949503959
:100B90002068884201D1801539E026493C39206817
:100BA000884201D1801432E02249283920688842E5
:100BB00002D14FF480302AE01E491439206888425F
:100BC00002D14FF4801022E01A492068884201D1F6
:100BD00040041CE018492068884201D1012016E039
:100BE000154914312068884201D110200FE01249C4
:100BF00028312068884201D1801508E00E493C3137
:100C00002068884201D1801401E04FF48030094906
:100C100080394860012084F8210000BF002084F85A
:100C2000200000BF606B10B12046616B88472846EA
:100C300070BD0000800002400804024003480069C3
:100C400040F0800001490861002070470020024008
:100C50002DE9FE4F05468B4617469846012600248F
:100C60000020029000BF2448007E012802D102200B
:100C7000BDE8FE8F01202049087600BF4CF25030BD
:100C8000FFF7D0FE064686BB012D02D1012002905F
:100C900006E0022D02D10220029001E00420029021
:100CA00000241EE02201B946C24648465146FFF7DD
:100CB000AEFA80B20190022000FB04B000900199CE
:100CC000FFF75EFE4CF25030FFF7ACFE06460B48D5
:100CD000006920F001000949086106B104E0601CC8
:100CE000C4B202988442DDDB00BF00BF002002498D
:100CF000087600BF3046BBE77800002000200240A5
:100D000000200849096901F0800151B10649054AEE
:100D10005160064951601146096901F0800101B135
:100D2000012070470020024023016745AB89EFCDC9
:100D30002DE9F847024600239C467BE14FF001086D
:100D400008FA03F4D1F8008008EA0400A0427DD13B
:100D5000DFF8F4A2D1F80480A8EB0A09D0453AD014
:100D600014DCB8F1030F50D009DCB8F1000F31D01A
:100D7000B8F1010F1CD0B8F1020F49D120E0B8F151
:100D8000110F18D0B8F1120F42D11EE0B9F5881F2B
:100D900025D006DCB9F5803F20D0B9F5801F37D1CA
:100DA0001AE0B9F5001F18D0B9F5041F30D117E0CB
:100DB000D1F80CC02DE0D1F80C8008F1040C28E02B
:100DC000D1F80C8008F1080C23E0D1F80C8008F170
:100DD0000C0C1EE000BF00BF00BF00BF00BF00BF83
:100DE000D1F80880B8F1000F02D14FF0040C0BE0ED
:100DF000D1F80880B8F1010F03D14FF0080C14614D
:100E000002E04FF0080C546103E04FF0000C00E0EA
:100E100000BF00BFFF2801D8904601E002F104089E
:100E20004646FF2802D84FEA830803E0A3F10808EA
:100E30004FEA88084746D6F800804FF00F0909FAB4
:100E400007F928EA09080CFA07F900E07AE048EA0D
:100E50000908C6F80080D1F8048008F08058B8F17D
:100E6000805F6FD100BFDFF8E481D8F8188048F0C8
:100E70000108DFF8D891C9F81880C846D8F818805A
:100E800008F00108CDF8008000BF00BF4FEAB93874
:100E90004FEA930958F829504FEA83784FEA1879B6
:100EA0004FF00F0808FA09F825EA0805DFF8A081D5
:100EB000424502D14FF0000824E0DFF89881424516
:100EC00002D14FF001081DE0DFF88C81424502D1CC
:100ED0004FF0020816E0DFF88481424502D14FF05E
:100EE00003080FE0DFF87881424502D14FF0040893
:100EF00008E0DFF87081424502D14FF0050801E0BB
:100F00004FF006084FEA83794FEA197908FA09F891
:100F100048EA0505DFF850814FEA930948F829505F
:100F2000D1F8048008F48038B8F5803F0BD1DFF8A1
:100F30003C81D8F8008048EA0008DFF83091C9F811
:100F400000800AE075E0DFF82481D8F8008028EA04
:100F50000008DFF81891C9F80080D1F8048008F47F
:100F60000038B8F5003F0ED1DFF8008108F1040821
:100F7000D8F8008048EA0008DFF8F09009F1040989
:100F8000C9F800800DE0DFF8E48008F10408D8F823
:100F9000008028EA0008DFF8D49009F10409C9F8B4
:100FA0000080D1F8048008F48018B8F5801F0ED1B5
:100FB000DFF8B88008F10808D8F8008048EA00088F
:100FC000DFF8A89009F10809C9F800800DE0DFF802
:100FD0009C8008F10808D8F8008028EA0008DFF8AB
:100FE0008C9009F10809C9F80080D1F8048008F450
:100FF0000018B8F5001F0ED1DFF8708008F10C085A
:10100000D8F8008048EA0008DFF8609009F10C0980
:10101000C9F800800DE0DFF8548008F10C08D8F81A
:10102000008028EA0008DFF8449009F10C09C9F8AB
:1010300000805B1CD1F8008028FA03F8B8F1000F9B
:101040007FF47CAEBDE8F88700001110001002406C
:1010500000080140000C0140001001400014014054
:1010600000180140001C014008000140000401403C
:10107000024693680B400BB1012000E0002070474E
:10108000C2680A400AB1416100E0016170470AB1DB
:10109000016101E00B040361704700000148006832
:1010A0007047000058000020034800680349097891
:1010B0000844014908607047580000206000002083
:1010C00010B50848006840F0100006490860052087
:1010D00000F080F80F2000F007F800F02BF8002057
:1010E00010BD00000020024070B504460E48007894
:1010F0004FF47A71B1FBF0F00C490968B1FBF0F5DF
:10110000284600F0D1FB08B1012070BD102C07D299
:1011100000222146501E00F01EF80548046001E040
:101120000120F2E70020F0E76000002054000020DA
:101130005C000020704701460846002809DB00F0EB
:101140001F0301229A4043099B0003F1E023C3F8E7
:10115000002100BF70472DE9F05F80460D4616461E
:10116000002701F089FF074639462A46334601F039
:101170000700C0F1070ABAF1040F02D94FF0040AC0
:1011800001E0C0F1070AD14600F1040ABAF1070FE5
:1011900002D24FF0000A01E0A0F1030AD4464FF05A
:1011A000010A0AFA09FAAAF1010A0AEA020A0AFA83
:1011B0000CFA4FF0010B0BFA0CFBABF1010B0BEA35
:1011C000030B4AEA0B042146404601F05DFFBDE8EF
:1011D000F09F000000BF00F00702064B19684FF6B1
:1011E000FF031940044B0B4343EA0221014B1960F2
:1011F00000BF70470CED00E00000FA0570B5044632
:101200000D460CB9012070BD5A48006800F0070077
:10121000A8420ED25748006820F0070028435549DD
:1012200008600846006800F00700A84201D00120CD
:10123000E9E7207800F0020002281DD1207800F0B4
:101240000400042805D14C48406840F4E0604A4955
:101250004860207800F00800082805D1464840681A
:1012600040F46050444948604348406820F0F00032
:10127000A168084340494860207800F0010078B335
:101280006068012806D13C48006800F4003090B93D
:101290000120B8E76068022806D13748006800F0EE
:1012A000007040B90120AEE73348006800F002004A
:1012B00008B90120A7E73048406820F003006168C2
:1012C00008432D494860FFF7E9FE064609E0FFF7AD
:1012D000E5FE801B41F28831884202D9032092E763
:1012E00007E02548406800F00C006168B0EB810F12
:1012F000EDD12048006800F00700A8420ED91D4833
:10130000006820F0070028431A4908600846006872
:1013100000F00700A84201D0012074E7207800F017
:101320000400042807D11448406820F4E060E16814
:10133000084311494860207800F00800082808D1C7
:101340000D48406820F46050216940EAC1000A4914
:10135000486000F019F808494968C1F30311074AC9
:10136000515CC8400649086006480068FFF7BCFEAB
:10137000002048E70020024000100240DC3900084D
:10138000540000205C000020F0B585B00FF26C0C1A
:101390009CE8E01001A8A0E8E0101CA52D680095CD
:1013A00000210022002300240020194D696801F06B
:1013B0000C05F5B1042D02D0082D19D101E0154816
:1013C00019E001ADC1F38346AC5D01F4803555B140
:1013D0000F4D6D68C5F340451DF805200D4D654363
:1013E000B5FBF2F302E00C4D04FB05F3184602E0F6
:1013F00000BF084800BF00BF05B0F0BD02030405F0
:10140000060708090A0B0C0D0E0F10100102000050
:101410000010024000127A0000093D00F8B50446B1
:101420000CB90120F8BD207800F00100002878D028
:10143000F848406800F00C0004280CD0F5484068DB
:1014400000F00C00082811D1F248406800F4803008
:10145000B0F5803F0AD1EF48006800F40030002862
:101460005FD0606800285CD10120DBE700BF6068C6
:10147000B0F5803F06D1E748006840F48030E54988
:10148000086028E0606858B9E248006820F48030BD
:10149000E04908600846006820F4802008601AE0EF
:1014A0006068B0F5A02F0BD1DA48006840F48020C6
:1014B000D84908600846006840F4803008600AE0B7
:1014C000D448006820F48030D2490860084600689B
:1014D00020F48020086000BF606888B1FFF7DEFD5F
:1014E000054606E0FFF7DAFD401B642801D903201A
:1014F00098E7C848006800F400300028F2D010E0F7
:10150000FFF7CCFD054606E0FFF7C8FD401B642849
:1015100001D9032086E7BF48006800F400300028A6
:10152000F2D1207800F00200022857D1B948406873
:1015300000F00C0050B1B748406800F00C000828DB
:1015400018D1B448406800F4803098B9B1480068B8
:1015500000F0020020B12069012801D0012061E7DC
:10156000AC48006820F0F800616940EAC100A94970
:10157000086033E02069E8B10120A7490860FFF75F
:101580008DFD054606E0FFF789FD401B022801D9C5
:10159000032047E79F48006800F002000028F2D0CF
:1015A0009C48006820F0F800616940EAC100994950
:1015B000086013E0002098490860FFF76FFD0546BA
:1015C00006E0FFF76BFD401B022801D9032029E745
:1015D0009048006800F002000028F2D1207800F066
:1015E000080008282DD1A069B8B101208B490860F6
:1015F000FFF754FD054606E0FFF750FD401B0228AB
:1016000001D903200EE78348406A00F00200002859
:10161000F2D0012000F062FD13E000207F49086055
:10162000FFF73CFD054606E0FFF738FD401B0228AA
:1016300001D90320F6E67748406A00F0020000284E
:10164000F2D1207800F00400042873D100277148FB
:10165000C06900F0805070B900BF6E48C06940F0AA
:1016600080506C49C8610846C06900F08050009005
:1016700000BF00BF01276A48006800F48070B0B95D
:101680006748006840F4807065490860FFF706FD10
:10169000054606E0FFF702FD401B642801D9032040
:1016A000C0E65F48006800F480700028F2D000BFF8
:1016B000E068012806D15748006A40F0010055490A
:1016C000086227E0E06858B95248006A20F001003B
:1016D000504908620846006A20F00400086219E0D8
:1016E000E06805280BD14B48006A40F004004949E6
:1016F00008620846006A40F0010008620AE04548B6
:10170000006A20F00100434908620846006A20F0A0
:101710000400086200BFE068A0B1FFF7BFFC054607
:1017200009E0FFF7BBFC401B41F28831884202D937
:10173000032077E622E03748006A00F00200002824
:10174000EFD012E0FFF7AAFC054608E0FFF7A6FC81
:10175000401B41F28831884201D9032062E62D48BE
:10176000006A00F002000028F0D1012F05D12948BD
:10177000C06920F080502749C86100BFE069C8B344
:101780002448406800F00C00082860D0E069022876
:1017900048D1002020490866FFF780FC054606E096
:1017A000FFF77CFC401B022801D903203AE61948C8
:1017B000006800F000700028F2D1206AB0F5803F88
:1017C00007D11448406820F40030A168084311494B
:1017D0004860D4E9080108430E49496821F47411AE
:1017E00008430C49486001200B490866FFF756FC86
:1017F000054607E03DE0FFF751FC401B022801D9F8
:1018000003200FE60348006800F000700028F2D0C3
:101810002FE00000001002400000424280044242DB
:1018200000700040002014490866FFF737FC0546A9
:1018300006E0FFF733FC401B022801D90320F1E545
:101840000E48006800F000700028F2D111E0E06955
:10185000012800D1E6E50948466806F48031206A8F
:10186000814204D106F47011606A814201D00120E6
:10187000D8E50020D6E500000000424200100240FA
:10188000042808D14FF0E021096941F004014FF02C
:10189000E022116107E04FF0E021096921F0040125
:1018A0004FF0E0221161704770B504462546681E6E
:1018B000B0F1807F01D301200FE0681E4FF0E021DE
:1018C00048610F214FF0FF3001F0DEFB00204FF0A8
:1018D000E021886107200861002070BD70477047D3
:1018E00010B504460CB9012010BD94F83D0028B98C
:1018F000002084F83C00204600F00CF8022084F818
:101900003D00211D206801F0CDF9012084F83D0043
:101910000020E9E738B504460D492068884215D112
:1019200000BF0C48C06940F002000A49C86108467F
:10193000C06900F00200009000BF00BF0322012137
:101940001D20FFF708FC1D20FFF7F5FB38BD000048
:10195000000400400010024001460868C06840F0E2
:1019600001000B68D8600868806800F00702062A4A
:1019700005D00868006840F001000B68186000207E
:101980007047704710B5044620680069C0F34000F6
:10199000D8B12068C068C0F34000B0B16FF0020059
:1019A00021680861012020772068806900F0030029
:1019B00018B12046FFF7E5FF05E0204600F0ADF83E
:1019C000204600F0ABF80020207720680069C0F3C3
:1019D0008000D8B12068C068C0F38000B0B16FF05B
:1019E000040021680861022020772068806900F4E3
:1019F000407018B12046FFF7C4FF05E0204600F014
:101A00008CF8204600F08AF80020207720680069D2
:101A1000C0F3C000D8B12068C068C0F3C000B0B146
:101A20006FF0080021680861042020772068C069F1
:101A300000F0030018B12046FFF7A3FF05E02046A1
:101A400000F06BF8204600F069F80020207720684D
:101A50000069C0F30010D8B12068C068C0F300105E
:101A6000B0B16FF01000216808610820207720686D
:101A7000C06900F4407018B12046FFF782FF05E00E
:101A8000204600F04AF8204600F048F80020207771
:101A90002068006900F0010058B12068C06800F0BB
:101AA000010030B16FF0010021680861204600F0AC
:101AB00037F820680069C0F3C01058B12068C068CA
:101AC000C0F3C01030B16FF080002168086120467B
:101AD000FFF704FF20680069C0F3801058B1206848
:101AE000C068C0F3801030B16FF040002168086119
:101AF000204600F02BF820680069C0F3401058B170
:101B00002068C068C0F3401030B16FF02000216839
:101B100008612046FFF7E3FE10BD704770470000E4
:101B200010B504460648844209D106480068401CA6
:101B3000044908604FF400510348FFF7A1FA10BDB3
:101B4000B00500207400002000100140704770476D
:101B500001460022002391F8392091F83A3042EAF8
:101B6000030070472DE9F0470446206805682068A7
:101B7000C668206847694FF00008C14605F00F08A5
:101B8000B8F1000F0AD105F0200038B106F02000AE
:101B900020B1204601F0FEF8BDE8F087B8F1000F53
:101BA0006DD007F0010018B906F49070002866D0D7
:101BB00005F0010030B106F4807018B1E06B40F020
:101BC0000100E06305F0040030B107F0010018B136
:101BD000E06B40F00200E06305F0020030B107F076
:101BE000010018B1E06B40F00400E06305F008006C
:101BF00030B107F0010018B1E06B40F00800E0637D
:101C0000E06B68B305F0200028B106F0200010B1A9
:101C1000204601F0BFF820684069C0F38019E06BEE
:101C200000F0080010B9B9F1000F22D0204601F0F1
:101C300091F82068406900F04000B0B12068406928
:101C400020F0400021684861606B50B11748616B1B
:101C50004863606BFEF71EFF10B1606B416B8847F5
:101C60000CE02046FFF773FF08E02046FFF76FFF08
:101C700004E02046FFF76BFF0020E0638CE705F0EF
:101C8000800030B106F0800018B1204601F0D5F890
:101C900082E705F0400030B106F0400018B1204660
:101CA00001F068F878E700BF76E70000412D0008F2
:101CB00010B5034693F83A0020282FD101B10AB994
:101CC000012010BD00BF93F83800012801D1022087
:101CD000F7E7012083F8380000BF99629A85DA851A
:101CE0000020D863222083F83A0000BF002083F848
:101CF000380000BF1868C06840F480701C68E0605D
:101D00001868406940F001001C6860611868C0688C
:101D100040F020001C68E0600020D2E70220D0E7FD
:101D20001D4A0168914236D11C49098801F40041DD
:101D300089BB1A49098801F4804171B118490978B1
:101D40000A2903D00021154A118024E0134909888B
:101D500041F40041114A11801DE0114909780D2913
:101D600006D10E49098841F480410C4A118012E0E5
:101D70000B490978094A1288C2F30D02094B99549C
:101D800006490988491C054A118011460988C72956
:101D900001DD002111807047003801406C000020F7
:101DA0006E00002098000020704700BFFEE7000092
:101DB00000B585B000BF2548806940F00100234987
:101DC00088610846806900F00100009000BF00BFF4
:101DD00000BF1F49486820F0E06040F00070486094
:101DE00000BF00BF1948806940F0080017498861AA
:101DF0000846806900F00800009000BF00BF00BFE7
:101E00000846806940F0040088610846806900F057
:101E10000400009000BF00BF4FF47E7001900120CD
:101E2000029003900320049001A90A48FEF780FF66
:101E30004FF41C4001900120029003900320049075
:101E400001A90548FEF774FF05B000BD001002406F
:101E500000000140000C0140000801401FB547F69A
:101E60000240009000200190022002900320039085
:101E700069460248FEF75CFF1FBD0000000C0140F0
:101E800010B50446012C01D1484908704748007834
:101E9000002862D04FF480614548FFF7E9F8012837
:101EA00021D04FF480514248FFF7E2F801281AD0C0
:101EB0004FF480413E48FFF7DBF8012813D04FF480
:101EC00000613B48FFF7D4F801280CD002213848C4
:101ED000FFF7CEF8012806D04FF400513448FFF741
:101EE000C7F8012839D10A2001F0EEF800202F4967
:101EF00008704FF480612E48FFF7BAF8012800D12E
:101F000010BD4FF480512A48FFF7B2F8012801D1E3
:101F10000220F5E74FF480412548FFF7A9F8012892
:101F200001D10320ECE74FF400612148FFF7A0F84E
:101F3000012801D10420E3E702211D48FFF798F8AA
:101F4000012801D10520DBE74FF400511848FFF7C5
:101F50008FF8012827D10620D2E74FF4806114487A
:101F6000FFF786F8F8B94FF480511148FFF780F871
:101F7000C8B94FF480410E48FFF77AF898B94FF48A
:101F800000610B48FFF774F868B902210848FFF7B1
:101F90006FF840B94FF400510548FFF769F810B9E0
:101FA0000120024908700020AAE700006F0000200D
:101FB000000C014010B5FFF7FBFE002000F0E0FF31
:101FC0000021382000F090FF052001F07DF800216D
:101FD000382000F089FF052001F076F80021382034
:101FE00000F082FF052001F06FF80121382000F099
:101FF0007BFF0121082000F077FF0121084600F057
:1020000073FF0121062000F06FFF01210C2000F07A
:102010006BFF10BD10B50A2001F056F801210846EB
:1020200000F062FF10BD000000B585B000BF26487B
:10203000806940F00100244988610846806900F009
:102040000100009000BF00BF00BF2049486820F099
:10205000E06040F00070486000BF00BF1A4880692F
:1020600040F01000184988610846806900F01000AF
:10207000009000BF00BF00BF0846806940F0040028
:1020800088610846806900F00400009000BF00BF2E
:1020900000BF0846806940F00800886108468069F2
:1020A00000F00800009000BF00BF4FF40050019006
:1020B0000120029003900320049001A90448FEF738
:1020C00037FE05B000BD00000010024000000140D6
:1020D0000010014000BFFEE77047704708B508498F
:1020E0000968C9084FF47A72B1FBF2F141430091DB
:1020F00000BF00BF00994A1E00920029F9D108BD17
:10210000540000201FB500224FF400711848FEF75C
:10211000BEFF012211021648FEF7B9FF01228021FD
:102120001348FEF7B4FF4FF4806000900020019048
:10213000012002900320039069460E48FEF7F8FD47
:1021400000BF4FF480610B48FEF792FF0028F8D1E2
:102150004FF48060009001200190029003200390D2
:1021600069460448FEF7E4FD012004B010BD0000FC
:10217000000C01400008014030B503460C461546EE
:10218000002207E0184600F008F824F812009B1C13
:10219000501C82B2AA42F5DB30BD01460888704768
:1021A0002DE9F05F80468A461746B8F1006F02D3EA
:1021B0003A48804501D3BDE8F09FFEF7A1FDA8F1A4
:1021C000006B4FEA9B25CBF34809C9F50074A74281
:1021D00000DC3C465CE04FF0006101EB85208A1496
:1021E0002F49FFF7C9FF00260BE009EB06002C4939
:1021F00031F810004FF6FF71884200D003E0701CE8
:1022000086B2A642F1DB00BFA64225DA4FF000619C
:1022100001EB8520FEF7A0FB4CF25030FEF702FCEC
:102220002048006920F002001E490861002608E0ED
:102230003AF8160006EB0901194A22F81100701C41
:1022400086B2A642F4DB4FF0006101EB85208A14D0
:10225000134900F029F808E04CF25030FEF7E2FB99
:1022600022465146404600F01FF8A74200D110E038
:102270006D1C4FF000090AEB440A08EB4408381BB8
:1022800087B2B7F5007F02DD4FF4007400E03C46F2
:10229000A1E700BFFEF7D2FC00BF8CE700000108F9
:1022A000B0010020002002402DE9F04104460E4616
:1022B000174600250AE036F815C06246002321467D
:1022C0000120FEF7C5FCA41C681C85B2BD42F2DBF0
:1022D000BDE8F0817047000010B5FEF7BBF80A209A
:1022E00000F0F2FE524800783030C2B200210846B9
:1022F000FEF71DFB0A2000F0E7FE4D484078303025
:10230000C2B200210120FEF712FB0A2000F0DCFE21
:102310002D2200210220FEF70AFB0A2000F0D4FE45
:102320004348C0783030C2B200210320FEF7FFFAE4
:102330000A2000F0C9FE3E4800793030C2B20021C8
:102340000420FEF7F4FA0A2000F0BEFE2D22002140
:102350000520FEF7ECFA0A2000F0B6FE344880793A
:102360003030C2B200210620FEF7E1FA0A2000F068
:10237000ABFE2F48C0793030C2B200210720FEF7F3
:10238000D6FA0A2000F0A0FE2948C07B3030C2B245
:1023900001210920FEF7CBFA0A2000F095FE24481F
:1023A000807B3030C2B201210820FEF7C0FA0A203B
:1023B00000F08AFE3A2201210720FEF7B8FA0A202F
:1023C00000F082FE1A48007B3030C2B201210620A4
:1023D000FEF7ADFA0A2000F077FE1548C07A3030DB
:1023E000C2B201210520FEF7A2FA0A2000F06CFE1D
:1023F0003A2201210420FEF79AFA0A2000F064FE36
:102400000B48407A3030C2B201210320FEF78FFA28
:102410000A2000F059FE0648007A3030C2B201218D
:102420000220FEF784FA0A2000F04EFE10BD0000E4
:10243000A001002030B58FB0054600240120059092
:10244000000406900020079002200C90C1030D911B
:102450000E9505A8FEF7E2FF04460CB100BFFEE7AB
:102460000F20009002200190002002904FF4806025
:1024700003900020049002216846FEF7BFFE044648
:102480000CB100BFFEE70FB030BD00002F48006860
:10249000002859D02E480068072829D2DFE800F02C
:1024A00028040A10161C22002A480068401C2949EA
:1024B00008601EE028480068401C2749086018E0B2
:1024C00026480068401C2549086012E0244800683E
:1024D000401C234908600CE022480068401C214948
:1024E000086006E020480068401C1F49086000E0C2
:1024F00000BF00BF174800680A2802D10020154914
:102500000860154800680A2802D1002012490860B6
:10251000124800680A2802D10020104908601048BB
:1025200000680A2802D100200D4908600D480068A3
:102530000A2802D100200B4908600B4800680A28CD
:1025400002D1002008490860704700000C000020FC
:10255000480000202C00002028000020240000203B
:10256000200000201C0000201800002010B50A20C8
:1025700000F0AAFD00218E20FEF700F81148007837
:10258000114A127802EB0010C1B28020FDF7F6FF6D
:102590000E4800780E4A127802EB0010C1B2822079
:1025A000FDF7ECFF0B4800780B4A127802EB0010A5
:1025B000C1B28420FDF7E2FF4FF400510748FEF757
:1025C0005FFD10BD280000202C000020200000200E
:1025D00024000020180000201C00002000100140F2
:1025E0002C480068002853D02B480068072829D2BF
:1025F000DFE800F028040A10161C220027480068B3
:10260000401E264908601EE025480068401E2449F7
:10261000086018E023480068401E2249086012E064
:1026200021480068401E204908600CE01F480068EF
:10263000401E1E49086006E01D480068401E1C49F7
:10264000086000E000BF00BF1448006810B909200E
:10265000124908601248006810B909201049086042
:102660001048006810B909200E4908600E4800683B
:1026700010B909200C4908600C48006810B90920FD
:102680000A4908600A48006810B90920084908602A
:10269000704700000C000020480000202C000020A3
:1026A0002800002024000020200000201C00002022
:1026B0001800002008B50120874908600A2000F0B2
:1026C00003FD86480068401C84490860084600688D
:1026D000042801D1012008608048006801283BD10E
:1026E00000BF7F48C06940F002007D49C8610846CC
:1026F000C06900F00200009000BF00BF0A2000F097
:10270000E3FCFFF787FC0A2000F0DEFC53220121E6
:102710000B20FEF70CF90A2000F0D6FC74220121F0
:102720000C20FEF704F90A2000F0CEFC6122012102
:102730000D20FEF7FCF80A2000F0C6FC72220121F1
:102740000E20FEF7F4F80A2000F0BEFC74220121EE
:102750000F20FEF7ECF865E060480068022833D1EE
:102760005F48C06920F002005D49C8610A2000F09E
:10277000ABFCFFF74FFC0A2000F0A6FC5022012121
:102780000B20FEF7D4F80A2000F09EFC6122012104
:102790000C20FEF7CCF80A2000F096FC75220121EF
:1027A0000D20FEF7C4F80A2000F08EFC73220121F0
:1027B0000E20FEF7BCF80A2000F086FC65220121FD
:1027C0000F20FEF7B4F82DE044480068032820D11C
:1027D0000A2000F079FCFFF71DFC0A2000F074FCD1
:1027E000452201210B20FEF7A2F80A2000F06CFC24
:1027F0006E2201210C20FEF79AF80A2000F064FCFA
:10280000642201210D20FEF792F80020354908606E
:1028100008E032480068042804D10A2000F054FC83
:10282000FFF7F8FB0A2000F04FFC3A2201210420B8
:10283000FEF77DF80A2000F047FC3A22012107202C
:10284000FEF775F80A2000F03FFC53220021042017
:10285000FEF76DF80A2000F037FC742200210520F5
:10286000FEF765F80A2000F02FFC6F2200210620F9
:10287000FEF75DF80A2000F027FC702200210720F7
:10288000FEF755F80A2000F01FFC772200210820EF
:10289000FEF74DF80A2000F017FC61220021092004
:1028A000FEF745F80A2000F00FFC742200210A20F0
:1028B000FEF73DF80A2000F007FC632200210B2000
:1028C000FEF735F80A2000F0FFFB682200210C20FB
:1028D000FEF72DF808BD00001400002008000020BD
:1028E00000100240740000201CB50120B6490860A9
:1028F00000F092FDB548006801282BD10220B349B1
:102900000860B348C07BB3490860B148807BB249D6
:102910000860AF48007BB1490860AD48C07AB04953
:102920000860AB48407AAF490860A948007AAE49D0
:102930000860A8480068A8490968CDE90010A748C0
:102940000368A7480268A7480168A748006800F024
:1029500035FE37E19D4800680128FADD9B48006894
:10296000801E062871D2DFE800F003325E8BC0F3D0
:1029700001209E4908609E48006858B901209C4982
:1029800008600A2000F0A0FB582201210920FDF771
:10299000CEFF1BE00020964908600A2000F094FB5F
:1029A0008C4800783030C2B201210920FDF7BFFF0A
:1029B0000A2000F089FB0A2000F086FB8A48007894
:1029C0003030C2B201210220FDF7B1FFF9E0022050
:1029D000864908608748006858B901208549086021
:1029E0000A2000F071FB582201210820FDF79FFF0B
:1029F00018E000207F4908600A2000F065FB764857
:102A000000783030C2B201210820FDF790FF0A2083
:102A100000F05AFB6F4800783030C2B20121092023
:102A2000FDF785FFCDE0032070490860724800681B
:102A300060B90120704908600A2000F045FB582267
:102A400001210620FDF773FF19E0B6E000206A4976
:102A500008600A2000F038FB5F4800783030C2B2CE
:102A600001210820FDF763FF0A2000F02DFB5B48E1
:102A700000783030C2B201210620FDF758FFA0E0F7
:102A800004205A4908605D48006870B901205B491C
:102A900008600A2000F018FB0A2000F015FB5822FD
:102AA00001210520FDF743FF1EE000205349086087
:102AB0000A2000F009FB0A2000F006FB47480078D6
:102AC0003030C2B201210620FDF731FF0A2000F0AC
:102AD000FBFA0A2000F0F8FA414800783030C2B220
:102AE00001210520FDF723FF6BE005203F49086029
:102AF0004348006858B90120414908600A2000F0A5
:102B0000E3FA582201210320FDF711FF1EE0002007
:102B10003B4908600A2000F0D7FA0A2000F0D4FAF6
:102B20002F4800783030C2B201210520FDF7FFFEAA
:102B30000A2000F0C9FA0A2000F0C6FA29480078F5
:102B40003030C2B201210320FDF7F1FE39E0FFE78A
:102B50000620264908602B48006870B901202949E1
:102B600008600A2000F0B0FA0A2000F0ADFA5822FE
:102B700001210220FDF7DBFE1EE000202149086054
:102B80000A2000F0A1FA0A2000F09EFA1548007809
:102B90003030C2B201210320FDF7C9FE0A2000F047
:102BA00093FA0A2000F090FA0F4800783030C2B251
:102BB00001210220FDF7BBFE03E00220034908606B
:102BC00000BF00BF1CBD0000140000200C0000204E
:102BD000A00100202C00002028000020240000205C
:102BE000200000201C0000201800002048000020C9
:102BF0003000002034000020380000203C0000207D
:102C0000400000204400002010B5FEF74DFA10BD32
:102C10001148006840F001000F490860084640680C
:102C20000E4908400C494860084600680C490840B5
:102C3000094908600846006820F4802008600846BA
:102C4000406820F4FE0048604FF41F008860C8030D
:102C50000449086070470000001002400000FFF8BF
:102C6000FFFFF6FE08ED00E010B50248FEF78AFE11
:102C700010BD0000B005002070B505460C460748A1
:102C8000074908600846446000218160C560016111
:102C9000FEF726FE0248FEF75FFE70BD000400400E
:102CA000B005002010B50268204B98420ED0204B92
:102CB00098420BD0B0F1804F08D01E4B984205D0FF
:102CC0001D4B984202D01D4B984203D122F0700256
:102CD0004B681A43154B98420ED0154B98420BD0B7
:102CE000B0F1804F08D0134B984205D0124B984258
:102CF00002D0124B984203D122F44072CB681A439F
:102D000022F080034C6943EA040202608B68C362CC
:102D10000B688362054B984202D0054B984201D163
:102D20000B6903630123436110BD0000002C0140C7
:102D3000003401400004004000080040000C004046
:102D400070B505466C6A0020E085E0842046FEF7F9
:102D5000FEFE70BD0168C96821F490710268D160FF
:102D60000168496921F0010102685161202180F860
:102D70003A10704710B504462068C06820F0400043
:102D80002168C860202084F839002046FFF70CF83D
:102D9000002010BD70B5044694F83A0022284AD1AC
:102DA000A068B0F5805F13D1A56A206940B920689A
:102DB0004068C0F308002880A06A801CA06219E067
:102DC00020684068C0B22880A06A401CA06211E060
:102DD000206938B920684068C1B2A26A501CA0625C
:102DE000117007E02068406800F07F01A26A501C63
:102DF000A0621170E08D401E80B2E085C8B92068E5
:102E0000C06820F020002168C8602068C06820F4F5
:102E100080702168C8602068406920F00100216846
:102E20004861202084F83A002046FEF779FF002010
:102E300070BD0020FCE70220FAE7014691F8390056
:102E400021282CD18868B0F5805F0FD10A6A1088DC
:102E5000C0F308000B685860086918B9086A801C3C
:102E6000086209E0086A401C086205E00B6A581C09
:102E7000086218780B685860C88C401E80B2C884FD
:102E800058B90868C06820F080000B68D8600868EE
:102E9000C06840F040000B68D860002070470220F6
:102EA000FCE7000010B500240C48FEF75BFE00BFF5
:102EB00001E0641C00BF0948FEF74AFE2028F8D153
:102EC00000BF002401E0641C00BF01220449034844
:102ED000FEF7EEFE0028F6D100BF10BD6001002015
:102EE0006E00002000BFFEE770B505460C460CB131
:102EF000FFF708F9284600F043F800224FF400716C
:102F00000C48FEF7C4F800224FF480710948FEF720
:102F1000BEF8002280210748FEF7B9F80022802180
:102F20000448FEF7B4F8012280210248FEF7AFF80A
:102F300070BD0000000C014010B50446FFF7E2F838
:102F4000204600F01DF8012251020C48FEF79FF8C0
:102F500000224FF480710948FEF799F80022802181
:102F60000648FEF794F8002280210448FEF78FF807
:102F7000012280210148FEF78AF810BD000C0140B3
:102F800010B5044604F0010028B101224021384860
:102F9000FEF77DF804E0002240213548FEF777F87F
:102FA00004F0020028B1012220213148FEF76FF819
:102FB00004E0002220212E48FEF769F804F0040006
:102FC00028B1012210212A48FEF761F804E000220E
:102FD00010212748FEF75BF804F0080028B1012211
:102FE00008212348FEF753F804E000220821204876
:102FF000FEF74DF804F0100028B10122D1031D485E
:10300000FEF745F805E000224FF400411948FEF7AD
:103010003EF804F0200028B1012211031548FEF704
:1030200036F805E000224FF480511248FEF72FF8E1
:1030300004F0400028B10122D1020E48FEF727F823
:1030400005E000224FF400610A48FEF720F804F082
:10305000800028B1012291020648FEF718F805E029
:1030600000224FF480610348FEF711F810BD000004
:10307000000C01400008014002480068C0F3022033
:10308000704700000CED00E010B5002804DB0A07D3
:10309000130E054A135406E00A07140E034A00F003
:1030A0000F031B1FD45410BD00E400E018ED00E036
:1030B00000BF704710B504460420FEF7E1FB01484D
:1030C000046010BD6400002030B50446002504E013
:1030D0004FF47A7000F004F86D1CA542F8D330BDAF
:1030E00070B5034600224FF0E02675690D4E366834
:1030F00003FB06F44FF0E026B16910E04FF0E02644
:10310000B06988420BD0884202D20E1A324402E0E3
:103110002E1A0E4432440146A24200D300E0EDE7ED
:1031200000BF70BD6400002010B5FDF7E7FA394913
:1031300008800A20FFF7C8FF3648B0F90000642174
:1031400090FBF1F03030C4B2224601210C20FDF793
:10315000EEFB0A20FFF7B8FF2E48B0F900000A2165
:1031600090FBF1F090FBF1F201FB12003030C4B2A1
:10317000224601210D20FDF7DAFB0A20FFF7A4FF0C
:103180002E2201210E20FDF7D2FB0A20FFF79CFF23
:103190002048B0F900000A2190FBF1F201FB120077
:1031A0003030C4B2224601210F20FDF7C0FB1A487F
:1031B0000068012802D01948006850BB0120174957
:1031C00008600A20FFF780FF542200210B20FDF742
:1031D000AEFB0A20FFF778FF652200210C20FDF7E7
:1031E000A6FB0A20FFF770FF6D2200210D20FDF7DE
:1031F0009EFB0A20FFF768FF702200210E20FDF7DA
:1032000096FB0A20FFF760FF3A2200210F20FDF70E
:103210008EFB10BD4C00002010000020500000204C
:1032200008B5FDF74DFF4FF4E010FFF703F9482014
:10323000FFF740FFFEF7F8FE0A20FFF745FFFEF715
:10324000B9FE0A20FFF740FFFEF708FE00BF01228B
:1032500069466748FEF790FF9DF8000006280BD0EE
:10326000012264496248FEF79BFF6348FDF754F86A
:103270006148FDF75FF902E05F48FDF74DF800BFD8
:103280000A20FFF721FF41F61F416320FFF7F4FCFE
:103290005A48C06920F002005849C86100205849C6
:1032A0000860A3E05748006810B95748006818B193
:1032B00056480068012806D1FFF70EF8FFF734FFE3
:1032C0000020524908600020FEF7DAFD0446072C72
:1032D00079D2DFE804F078041231203F4D004C48E9
:1032E000006810B14848006808B1FFF7CFF84FF404
:1032F00000514848FDF7C4FE69E04548006810B138
:103300004148006808B1FFF76BF94FF4005141489C
:10331000FDF7B6FE5BE03E48006810B13A48006831
:1033200020B139480068401C374908604FF400510B
:103330003848FDF7A5FE4AE03548006810B132482C
:10334000006808B1FFF712F94FF400513148FDF75A
:1033500097FE3CE02E48006810B12A48006808B18A
:10336000FFF7A8F94FF400512A48FDF789FE2EE037
:1033700000BF002026490860012024490860214838
:10338000006868B100201F4908601D490860204995
:1033900008601A48C06920F002001849C86105E0B9
:1033A0001948006810B10020174908600A20FFF78B
:1033B0008BFEFEF72FFE00BF4FF400511548FDF7BE
:1033C0005FFE04E0FFE70A20FFF77EFE00BF00BFBC
:1033D0000D48006828B1FFF787FA4FF4FA70FFF73D
:1033E00073FE0848006808B100F050F85AE7000082
:1033F00000700008060000200000002000100240BD
:1034000074000020080000200C00002010000020A4
:10341000140000200010014010B50A20FFF754FEF0
:10342000532200210320FDF782FA0A20FFF74CFE09
:10343000652200210420FDF77AFA0A20FFF744FEF6
:10344000742200210520FDF772FA0A20FFF73CFEE6
:10345000542200210820FDF76AFA0A20FFF734FE03
:10346000692200210920FDF762FA0A20FFF72CFEED
:103470006D2200210A20FDF75AFA0A20FFF724FEE8
:10348000652200210B20FDF752FA10BD10B54A4805
:1034900000680A280FD20A20FFF716FE3A220121FF
:1034A0000420FDF744FA0A20FFF70EFE3A2201211C
:1034B0000720FDF73CFA0A20FFF706FE3E480068A9
:1034C0000A21B0FBF1F201FB120000F130042246A8
:1034D00001210920FDF72BFA0A20FFF7F5FD3648F8
:1034E00000680A21B0FBF1F0B0FBF1F201FB120021
:1034F00000F13004224601210820FDF718FA0A20C5
:10350000FFF7E2FD2C4800686421B0FBF1F03C219C
:10351000B0FBF1F201FB12000A21B0FBF1F201FB5A
:10352000120000F13004224601210620FDF7FFF9C8
:103530000A20FFF7C9FD204800686421B0FBF1F0C4
:103540003C21B0FBF1F201FB12000A21B0FBF1F0CB
:1035500000F13004224601210520FDF7E8F90A2098
:10356000FFF7B2FD144800686421B0FBF1F03C2184
:10357000B0FBF1F00A21B0FBF1F201FB120000F107
:103580003004224601210320FDF7D1F90A20FFF77C
:103590009BFD094800686421B0FBF1F03C21B0FBC1
:1035A000F1F00A21B0FBF1F03030C4B22246012123
:1035B0000220FDF7BCF910BD740000202DE9F04792
:1035C00004460D4616461F46DDE90889FEF722FD32
:1035D0000A20FFF779FD09F13000C2B2012109206C
:1035E000FDF7A5F90A20FFF76FFD08F13000C2B220
:1035F00001210820FDF79BF90A20FFF765FD3A221B
:1036000001210720FDF793F90A20FFF75DFD07F17F
:103610003000C2B201210620FDF789F90A20FFF728
:1036200053FD06F13000C2B201210520FDF77FF9FC
:103630000A20FFF749FD3A2201210420FDF777F91E
:103640000A20FFF741FD05F13000C2B2012103203D
:10365000FDF76DF90A20FFF737FD04F13000C2B223
:1036600001210220FDF763F9BDE8F0874FEA41032D
:103670004FEA5353A3F58063D3F11E03C8BFD3F1C0
:10368000210C0CDD4FF0004242EAC12242EA5052C6
:1036900032FA03FC8CEAE17CACEBE1707047102B52
:1036A000C4BF0020704703F5787CBCF1FF3F04D015
:1036B0006FF0004282EA2100704770B500F0B0F868
:1036C0004992248000207047F2E70000DFF848C1EB
:1036D00070B51CEA111E1EBF1CEA13159EEA0C0FE2
:1036E00095EA0C0F00F06F8081EA030423EA4C1383
:1036F0004EEAD47E21EA4C1141F4801143F4801348
:10370000AE44A1FB024CA0FB0365AEF17F7E3619EF
:1037100055EB0C05A1FB034C4CF10003A0FB021C74
:1037200016EB0C06654153F10003094218BF46F041
:10373000010613F4007F0BD14FEA03314FEA053045
:10374000340341EA155140EA16506FF003020AE0D3
:103750004FEAC3214FEAC520F40241EA555140EA3D
:1037600056506FF0020202EB2E4201EB025585EA41
:10377000CE710AD05FEA440C18BF24F0004450F127
:10378000000041F1000120EAD47040F2FE7C624565
:1037900000D270BDA84214BF4FF080444FF04044A7
:1037A000002E08BF0024BEF1806FA8BFA1F1C04168
:1037B000BDE8704080F282804FF0000001F1C0410E
:1037C00001F0004170479EEA0C0F0CEA131518BF78
:1037D00095EA0C0F06D04FF0000081EA030E0EF0C0
:1037E000004170BD00F01CF88900013E00F007B8F0
:1037F00000F009B84FEA430C5FEA5C5C08D081EA4C
:10380000030100F05BB84FEA410C5FEA5C5CF6D163
:103810004FF00000014970470000FF070000F87FEB
:103820000EF1020E2EF0030E5EF8046B364205D444
:10383000012A43EB030515F5001F12D8012841EBBF
:10384000010C1CF5001F0CD80ED14FEAD17C15F5E8
:10385000001F0CEB4C0C0CF1020C08BF4CEBD37CA2
:1038600004E04FF0080C01E04FEAD37C0CEB4C0570
:1038700026FA05F606F00706B6F1040C06D20EEBA2
:10388000860CBDE870404CF0010C6047DFE80CF09E
:10389000090B02024FF000414FF00000A1F500219A
:1038A00070BD19461046012851EB010418BFD4F52C
:1038B000001484BF002001F0004170BD0808A0F58D
:1038C00000114FEA3101704743004FEAD30C4FEA31
:1038D0003C0C43401FBF40070CF1605113F0FE4FFA
:1038E00070471CF0006F03D100200CF000417047BE
:1038F0000CF0004343EA507010B540EACC0000F0F1
:1039000027F800BF000000924FEA0001FFF7D6BF82
:103910004FF000414FF00000A1F50021704700007A
:1039200010F0004148BF4042B0FA80F310FA03F2B1
:10393000C3F19D030BD051EAC35101EB1220530692
:1039400038BF704700F1010008BF20F00100704748
:103950000EF1020E2EF0030E5EF8044B244204D446
:103960004FEA4102B2F17F4F11D84FEA4003B3F161
:103970007F4F0CD80ED14FEAD07CB2F17F4F0CEBC9
:103980004C0C0CF1020C08BF4CEBD17C04E04FF066
:10399000080C01E04FEAD17C0CEB4C0324FA03F451
:1039A00004F00704B4F1040C06D20EEB840CBDE85D
:1039B00010404CF0010C6047DFE80CF007080202F1
:1039C0004FF00040A0F5800010BD0846420018BF2F
:1039D000D2F1807288BF00F0004010BD00000000EE
:1039E00000000000010203040607080900000000AF
:1039F00001020304143A00080000002078000000CF
:103A00006C0100088C3A000878000020D80B0000F8
:103A1000880100082210101130100600000000007C
:103A20000000000000000000000000000000000096
:103A30000000000000000000000000000000000086
:103A40000000000000000000000000000000000076
:103A50000000000000000000000000000000000066
:103A600000000000000000000024F400000000003E
:103A70001000000001000000000000000000000035
:0C3A800000000001000000000000000039
:0400000508000131BD
:00000001FF
